{
  "_format": "hh-sol-artifact-1",
  "contractName": "SkillShop",
  "sourceName": "contracts/SkillShop.sol",
  "abi": [
    {
      "inputs": [
        {
          "internalType": "address",
          "name": "_usdc",
          "type": "address"
        }
      ],
      "stateMutability": "nonpayable",
      "type": "constructor"
    },
    {
      "anonymous": false,
      "inputs": [
        {
          "indexed": true,
          "internalType": "address",
          "name": "buyer",
          "type": "address"
        },
        {
          "indexed": true,
          "internalType": "uint256",
          "name": "skillId",
          "type": "uint256"
        },
        {
          "indexed": false,
          "internalType": "uint256",
          "name": "price",
          "type": "uint256"
        }
      ],
      "name": "SkillPurchased",
      "type": "event"
    },
    {
      "inputs": [
        {
          "internalType": "address",
          "name": "buyer",
          "type": "address"
        },
        {
          "internalType": "uint256",
          "name": "skillId",
          "type": "uint256"
        }
      ],
      "name": "checkPurchase",
      "outputs": [
        {
          "internalType": "bool",
          "name": "",
          "type": "bool"
        }
      ],
      "stateMutability": "view",
      "type": "function"
    },
    {
      "inputs": [
        {
          "internalType": "address",
          "name": "",
          "type": "address"
        },
        {
          "internalType": "uint256",
          "name": "",
          "type": "uint256"
        }
      ],
      "name": "hasPurchased",
      "outputs": [
        {
          "internalType": "bool",
          "name": "",
          "type": "bool"
        }
      ],
      "stateMutability": "view",
      "type": "function"
    },
    {
      "inputs": [],
      "name": "owner",
      "outputs": [
        {
          "internalType": "address",
          "name": "",
          "type": "address"
        }
      ],
      "stateMutability": "view",
      "type": "function"
    },
    {
      "inputs": [
        {
          "internalType": "uint256",
          "name": "skillId",
          "type": "uint256"
        }
      ],
      "name": "purchase",
      "outputs": [],
      "stateMutability": "nonpayable",
      "type": "function"
    },
    {
      "inputs": [
        {
          "internalType": "uint256",
          "name": "",
          "type": "uint256"
        }
      ],
      "name": "skills",
      "outputs": [
        {
          "internalType": "uint256",
          "name": "id",
          "type": "uint256"
        },
        {
          "internalType": "uint256",
          "name": "price",
          "type": "uint256"
        },
        {
          "internalType": "bool",
          "name": "active",
          "type": "bool"
        }
      ],
      "stateMutability": "view",
      "type": "function"
    },
    {
      "inputs": [],
      "name": "usdcToken",
      "outputs": [
        {
          "internalType": "address",
          "name": "",
          "type": "address"
        }
      ],
      "stateMutability": "view",
      "type": "function"
    }
  ],
  "bytecode": "0x608060405234801561001057600080fd5b50604051610c55380380610c55833981810160405281019061003291906102d0565b336000806101000a81548173ffffffffffffffffffffffffffffffffffffffff021916908373ffffffffffffffffffffffffffffffffffffffff16021790555080600160006101000a81548173ffffffffffffffffffffffffffffffffffffffff021916908373ffffffffffffffffffffffffffffffffffffffff160217905550604051806060016040528060018152602001621e84808152602001600115158152506002600060018152602001908152602001600020600082015181600001556020820151816001015560408201518160020160006101000a81548160ff021916908315150217905550905050604051806060016040528060028152602001624c4b408152602001600115158152506002600060028152602001908152602001600020600082015181600001556020820151816001015560408201518160020160006101000a81548160ff021916908315150217905550905050604051806060016040528060038152602001622dc6c08152602001600115158152506002600060038152602001908152602001600020600082015181600001556020820151816001015560408201518160020160006101000a81548160ff021916908315150217905550905050604051806060016040528060048152602001629896808152602001600115158152506002600060048152602001908152602001600020600082015181600001556020820151816001015560408201518160020160006101000a81548160ff021916908315150217905550905050506102fd565b600080fd5b600073ffffffffffffffffffffffffffffffffffffffff82169050919050565b600061029d82610272565b9050919050565b6102ad81610292565b81146102b857600080fd5b50565b6000815190506102ca816102a4565b92915050565b6000602082840312156102e6576102e561026d565b5b60006102f4848285016102bb565b91505092915050565b6109498061030c6000396000f3fe608060405234801561001057600080fd5b50600436106100625760003560e01c8063119231321461006757806311eac8551461009757806350d15fbe146100b557806366bce961146100e75780638da5cb5b14610117578063efef39a114610135575b600080fd5b610081600480360381019061007c9190610600565b610151565b60405161008e919061065b565b60405180910390f35b61009f610180565b6040516100ac9190610685565b60405180910390f35b6100cf60048036038101906100ca91906106a0565b6101a6565b6040516100de939291906106dc565b60405180910390f35b61010160048036038101906100fc9190610600565b6101dd565b60405161010e919061065b565b60405180910390f35b61011f610245565b60405161012c9190610685565b60405180910390f35b61014f600480360381019061014a91906106a0565b610269565b005b60036020528160005260406000206020528060005260406000206000915091509054906101000a900460ff1681565b600160009054906101000a900473ffffffffffffffffffffffffffffffffffffffff1681565b60026020528060005260406000206000915090508060000154908060010154908060020160009054906101000a900460ff16905083565b6000600360008473ffffffffffffffffffffffffffffffffffffffff1673ffffffffffffffffffffffffffffffffffffffff168152602001908152602001600020600083815260200190815260200160002060009054906101000a900460ff16905092915050565b60008054906101000a900473ffffffffffffffffffffffffffffffffffffffff1681565b60006002600083815260200190815260200160002060405180606001604052908160008201548152602001600182015481526020016002820160009054906101000a900460ff161515151581525050905080604001516102fe576040517f08c379a00000000000000000000000000000000000000000000000000000000081526004016102f590610770565b60405180910390fd5b600360003373ffffffffffffffffffffffffffffffffffffffff1673ffffffffffffffffffffffffffffffffffffffff168152602001908152602001600020600083815260200190815260200160002060009054906101000a900460ff161561039c576040517f08c379a0000000000000000000000000000000000000000000000000000000008152600401610393906107dc565b60405180910390fd5b6000600160009054906101000a900473ffffffffffffffffffffffffffffffffffffffff1673ffffffffffffffffffffffffffffffffffffffff166323b872dd3360008054906101000a900473ffffffffffffffffffffffffffffffffffffffff1685602001516040518463ffffffff1660e01b8152600401610421939291906107fc565b6020604051808303816000875af1158015610440573d6000803e3d6000fd5b505050506040513d601f19601f82011682018060405250810190610464919061085f565b9050806104a6576040517f08c379a000000000000000000000000000000000000000000000000000000000815260040161049d906108d8565b60405180910390fd5b6001600360003373ffffffffffffffffffffffffffffffffffffffff1673ffffffffffffffffffffffffffffffffffffffff168152602001908152602001600020600085815260200190815260200160002060006101000a81548160ff021916908315150217905550823373ffffffffffffffffffffffffffffffffffffffff167f0b521fbb46fdf54b158fb7bc9d9e5a2542e92c7e85981803a0d05b3fc85c7b9f846020015160405161055a91906108f8565b60405180910390a3505050565b600080fd5b600073ffffffffffffffffffffffffffffffffffffffff82169050919050565b60006105978261056c565b9050919050565b6105a78161058c565b81146105b257600080fd5b50565b6000813590506105c48161059e565b92915050565b6000819050919050565b6105dd816105ca565b81146105e857600080fd5b50565b6000813590506105fa816105d4565b92915050565b6000806040838503121561061757610616610567565b5b6000610625858286016105b5565b9250506020610636858286016105eb565b9150509250929050565b60008115159050919050565b61065581610640565b82525050565b6000602082019050610670600083018461064c565b92915050565b61067f8161058c565b82525050565b600060208201905061069a6000830184610676565b92915050565b6000602082840312156106b6576106b5610567565b5b60006106c4848285016105eb565b91505092915050565b6106d6816105ca565b82525050565b60006060820190506106f160008301866106cd565b6106fe60208301856106cd565b61070b604083018461064c565b949350505050565b600082825260208201905092915050565b7f536b696c6c206e6f742061637469766500000000000000000000000000000000600082015250565b600061075a601083610713565b915061076582610724565b602082019050919050565b600060208201905081810360008301526107898161074d565b9050919050565b7f416c726561647920707572636861736564000000000000000000000000000000600082015250565b60006107c6601183610713565b91506107d182610790565b602082019050919050565b600060208201905081810360008301526107f5816107b9565b9050919050565b60006060820190506108116000830186610676565b61081e6020830185610676565b61082b60408301846106cd565b949350505050565b61083c81610640565b811461084757600080fd5b50565b60008151905061085981610833565b92915050565b60006020828403121561087557610874610567565b5b60006108838482850161084a565b91505092915050565b7f55534443207472616e73666572206661696c6564000000000000000000000000600082015250565b60006108c2601483610713565b91506108cd8261088c565b602082019050919050565b600060208201905081810360008301526108f1816108b5565b9050919050565b600060208201905061090d60008301846106cd565b9291505056fea26469706673582212201e758cf5182d04a6557504906c694f3afe22dce7e1add0a431d636cfb2d5ff8764736f6c63430008140033",
  "linkReferences": {},
  "deployedLinkReferences": {}
}